{
  "address": "0xB991BFba0E420C468c5B7725b32bFEf663F469Af",
  "abi": [
    {
      "inputs": [
        {
          "internalType": "address",
          "name": "agentAddress",
          "type": "address"
        }
      ],
      "stateMutability": "nonpayable",
      "type": "constructor"
    },
    {
      "inputs": [],
      "name": "ExecutionReverted",
      "type": "error"
    },
    {
      "inputs": [],
      "name": "InactiveJob",
      "type": "error"
    },
    {
      "inputs": [],
      "name": "IntervalNotReached",
      "type": "error"
    },
    {
      "inputs": [],
      "name": "InvalidSender",
      "type": "error"
    },
    {
      "inputs": [
        {
          "internalType": "address",
          "name": "safe",
          "type": "address"
        },
        {
          "components": [
            {
              "internalType": "address",
              "name": "to",
              "type": "address"
            },
            {
              "internalType": "bytes",
              "name": "data",
              "type": "bytes"
            },
            {
              "internalType": "uint256",
              "name": "value",
              "type": "uint256"
            },
            {
              "internalType": "enum ISafe.Operation",
              "name": "operation",
              "type": "uint8"
            }
          ],
          "internalType": "struct IPPAgentSafeModule.Tx",
          "name": "tx_",
          "type": "tuple"
        }
      ],
      "name": "exec",
      "outputs": [],
      "stateMutability": "nonpayable",
      "type": "function"
    },
    {
      "inputs": [
        {
          "internalType": "address",
          "name": "safe",
          "type": "address"
        },
        {
          "components": [
            {
              "internalType": "address",
              "name": "to",
              "type": "address"
            },
            {
              "internalType": "bytes",
              "name": "data",
              "type": "bytes"
            },
            {
              "internalType": "uint256",
              "name": "value",
              "type": "uint256"
            },
            {
              "internalType": "enum ISafe.Operation",
              "name": "operation",
              "type": "uint8"
            }
          ],
          "internalType": "struct IPPAgentSafeModule.Tx",
          "name": "tx_",
          "type": "tuple"
        }
      ],
      "name": "getJobInfo",
      "outputs": [
        {
          "components": [
            {
              "internalType": "bool",
              "name": "isActive",
              "type": "bool"
            },
            {
              "internalType": "uint24",
              "name": "intervalSeconds",
              "type": "uint24"
            },
            {
              "internalType": "uint32",
              "name": "lastExecutionAt",
              "type": "uint32"
            }
          ],
          "internalType": "struct IPPAgentSafeModule.Job",
          "name": "",
          "type": "tuple"
        }
      ],
      "stateMutability": "view",
      "type": "function"
    },
    {
      "inputs": [
        {
          "internalType": "uint24",
          "name": "interval",
          "type": "uint24"
        },
        {
          "internalType": "bool",
          "name": "isActive",
          "type": "bool"
        },
        {
          "components": [
            {
              "internalType": "address",
              "name": "to",
              "type": "address"
            },
            {
              "internalType": "bytes",
              "name": "data",
              "type": "bytes"
            },
            {
              "internalType": "uint256",
              "name": "value",
              "type": "uint256"
            },
            {
              "internalType": "enum ISafe.Operation",
              "name": "operation",
              "type": "uint8"
            }
          ],
          "internalType": "struct IPPAgentSafeModule.Tx",
          "name": "tx_",
          "type": "tuple"
        }
      ],
      "name": "updateJob",
      "outputs": [],
      "stateMutability": "nonpayable",
      "type": "function"
    }
  ],
  "transactionHash": "0x51a6d3b616465aec5596ab9215b502edf9f62a7efd5ec96b5ceb97730551f94b",
  "args": [
    "0x071412e301C2087A4DAA055CF4aFa2683cE1e499"
  ],
  "numDeployments": 1,
  "solcInputHash": "697801175f4564c632fb57750eba19a0",
  "bytecode": "0x60a060405234801561001057600080fd5b50604051610e74380380610e74833981810160405281019061003291906100cf565b8073ffffffffffffffffffffffffffffffffffffffff1660808173ffffffffffffffffffffffffffffffffffffffff1681525050506100fc565b600080fd5b600073ffffffffffffffffffffffffffffffffffffffff82169050919050565b600061009c82610071565b9050919050565b6100ac81610091565b81146100b757600080fd5b50565b6000815190506100c9816100a3565b92915050565b6000602082840312156100e5576100e461006c565b5b60006100f3848285016100ba565b91505092915050565b608051610d5d61011760003960006101ea0152610d5d6000f3fe608060405234801561001057600080fd5b50600436106100415760003560e01c8063111992ea146100465780639af6419014610076578063c0bc1e3d14610092575b600080fd5b610060600480360381019061005b919061054f565b6100ae565b60405161006d9190610645565b60405180910390f35b610090600480360381019061008b91906106b8565b610167565b005b6100ac60048036038101906100a7919061054f565b6101e8565b005b6100b661048b565b60008084846040516020016100cc9291906109c0565b6040516020818303038152906040528051906020012081526020019081526020016000206040518060600160405290816000820160009054906101000a900460ff161515151581526020016000820160019054906101000a900462ffffff1662ffffff1662ffffff1681526020016000820160049054906101000a900463ffffffff1663ffffffff1663ffffffff1681525050905092915050565b6000806000338460405160200161017f9291906109c0565b6040516020818303038152906040528051906020012081526020019081526020016000209050828160000160006101000a81548160ff021916908315150217905550838160000160016101000a81548162ffffff021916908362ffffff16021790555050505050565b7f000000000000000000000000000000000000000000000000000000000000000073ffffffffffffffffffffffffffffffffffffffff163373ffffffffffffffffffffffffffffffffffffffff161461026d576040517fddb5de5e00000000000000000000000000000000000000000000000000000000815260040160405180910390fd5b600080600084846040516020016102859291906109c0565b60405160208183030381529060405280519060200120815260200190815260200160002090508060000160009054906101000a900460ff166102f3576040517f3107270200000000000000000000000000000000000000000000000000000000815260040160405180910390fd5b60008160000160019054906101000a900462ffffff1662ffffff168260000160049054906101000a900463ffffffff160163ffffffff16905042811115610366576040517fc7a06d5f00000000000000000000000000000000000000000000000000000000815260040160405180910390fd5b428260000160046101000a81548163ffffffff021916908363ffffffff16021790555060008473ffffffffffffffffffffffffffffffffffffffff16635229073f8560000160208101906103ba91906109f0565b86604001358780602001906103cf9190610a2c565b8960600160208101906103e29190610a8f565b6040518663ffffffff1660e01b8152600401610402959493929190610b18565b6000604051808303816000875af1158015610421573d6000803e3d6000fd5b505050506040513d6000823e3d601f19601f8201168201806040525081019061044a9190610ccb565b50905080610484576040517ff21e646b00000000000000000000000000000000000000000000000000000000815260040160405180910390fd5b5050505050565b6040518060600160405280600015158152602001600062ffffff168152602001600063ffffffff1681525090565b6000604051905090565b600080fd5b600080fd5b600073ffffffffffffffffffffffffffffffffffffffff82169050919050565b60006104f8826104cd565b9050919050565b610508816104ed565b811461051357600080fd5b50565b600081359050610525816104ff565b92915050565b600080fd5b6000608082840312156105465761054561052b565b5b81905092915050565b60008060408385031215610566576105656104c3565b5b600061057485828601610516565b925050602083013567ffffffffffffffff811115610595576105946104c8565b5b6105a185828601610530565b9150509250929050565b60008115159050919050565b6105c0816105ab565b82525050565b600062ffffff82169050919050565b6105de816105c6565b82525050565b600063ffffffff82169050919050565b6105fd816105e4565b82525050565b60608201600082015161061960008501826105b7565b50602082015161062c60208501826105d5565b50604082015161063f60408501826105f4565b50505050565b600060608201905061065a6000830184610603565b92915050565b610669816105c6565b811461067457600080fd5b50565b60008135905061068681610660565b92915050565b610695816105ab565b81146106a057600080fd5b50565b6000813590506106b28161068c565b92915050565b6000806000606084860312156106d1576106d06104c3565b5b60006106df86828701610677565b93505060206106f0868287016106a3565b925050604084013567ffffffffffffffff811115610711576107106104c8565b5b61071d86828701610530565b9150509250925092565b610730816104ed565b82525050565b60006107456020840184610516565b905092915050565b610756816104ed565b82525050565b600080fd5b600080fd5b600080fd5b6000808335600160200384360303811261078857610787610766565b5b83810192508235915060208301925067ffffffffffffffff8211156107b0576107af61075c565b5b6001820236038313156107c6576107c5610761565b5b509250929050565b600082825260208201905092915050565b82818337600083830152505050565b6000601f19601f8301169050919050565b600061080b83856107ce565b93506108188385846107df565b610821836107ee565b840190509392505050565b6000819050919050565b61083f8161082c565b811461084a57600080fd5b50565b60008135905061085c81610836565b92915050565b6000610871602084018461084d565b905092915050565b6108828161082c565b82525050565b6002811061089557600080fd5b50565b6000813590506108a781610888565b92915050565b60006108bc6020840184610898565b905092915050565b7f4e487b7100000000000000000000000000000000000000000000000000000000600052602160045260246000fd5b60028110610904576109036108c4565b5b50565b6000819050610915826108f3565b919050565b600061092582610907565b9050919050565b6109358161091a565b82525050565b60006080830161094e6000840184610736565b61095b600086018261074d565b50610969602084018461076b565b858303602087015261097c8382846107ff565b9250505061098d6040840184610862565b61099a6040860182610879565b506109a860608401846108ad565b6109b5606086018261092c565b508091505092915050565b60006040820190506109d56000830185610727565b81810360208301526109e7818461093b565b90509392505050565b600060208284031215610a0657610a056104c3565b5b6000610a1484828501610516565b91505092915050565b600080fd5b600080fd5b600080fd5b60008083356001602003843603038112610a4957610a48610a1d565b5b80840192508235915067ffffffffffffffff821115610a6b57610a6a610a22565b5b602083019250600182023603831315610a8757610a86610a27565b5b509250929050565b600060208284031215610aa557610aa46104c3565b5b6000610ab384828501610898565b91505092915050565b610ac58161082c565b82525050565b600082825260208201905092915050565b6000610ae88385610acb565b9350610af58385846107df565b610afe836107ee565b840190509392505050565b610b128161091a565b82525050565b6000608082019050610b2d6000830188610727565b610b3a6020830187610abc565b8181036040830152610b4d818587610adc565b9050610b5c6060830184610b09565b9695505050505050565b600081519050610b758161068c565b92915050565b600080fd5b600080fd5b7f4e487b7100000000000000000000000000000000000000000000000000000000600052604160045260246000fd5b610bbd826107ee565b810181811067ffffffffffffffff82111715610bdc57610bdb610b85565b5b80604052505050565b6000610bef6104b9565b9050610bfb8282610bb4565b919050565b600067ffffffffffffffff821115610c1b57610c1a610b85565b5b610c24826107ee565b9050602081019050919050565b60005b83811015610c4f578082015181840152602081019050610c34565b60008484015250505050565b6000610c6e610c6984610c00565b610be5565b905082815260208101848484011115610c8a57610c89610b80565b5b610c95848285610c31565b509392505050565b600082601f830112610cb257610cb1610b7b565b5b8151610cc2848260208601610c5b565b91505092915050565b60008060408385031215610ce257610ce16104c3565b5b6000610cf085828601610b66565b925050602083015167ffffffffffffffff811115610d1157610d106104c8565b5b610d1d85828601610c9d565b915050925092905056fea2646970667358221220409bf181794ea6d4a619acfe8dc39d371c060bcbf548d4a79ce8934015a2750464736f6c63430008130033",
  "devdoc": {
    "kind": "dev",
    "methods": {
      "constructor": {
        "params": {
          "agentAddress": "Address of a PPAgent contract"
        }
      },
      "exec(address,(address,bytes,uint256,uint8))": {
        "params": {
          "safe": "Address of a Safe smart contract",
          "tx_": "Transaction to be executed"
        }
      },
      "getJobInfo(address,(address,bytes,uint256,uint8))": {
        "params": {
          "safe": "Address of a Safe smart contract wallet",
          "tx_": "Transaction to be executed"
        }
      },
      "updateJob(uint24,bool,(address,bytes,uint256,uint8))": {
        "params": {
          "interval": "Interval in seconds",
          "isActive": "boolean",
          "tx_": "Transaction which will be whitelisted to be executed"
        }
      }
    },
    "stateVariables": {
      "AgentContract": {
        "details": "Address of the PPAgent Contract"
      }
    },
    "version": 1
  },
  "userdoc": {
    "kind": "user",
    "methods": {},
    "version": 1
  },
  "storageLayout": {
    "storage": [
      {
        "astId": 264,
        "contract": "contracts/PPSafeAgent.sol:PPAgentSafeModule",
        "label": "jobs",
        "offset": 0,
        "slot": "0",
        "type": "t_mapping(t_bytes32,t_struct(Job)182_storage)"
      }
    ],
    "types": {
      "t_bool": {
        "encoding": "inplace",
        "label": "bool",
        "numberOfBytes": "1"
      },
      "t_bytes32": {
        "encoding": "inplace",
        "label": "bytes32",
        "numberOfBytes": "32"
      },
      "t_mapping(t_bytes32,t_struct(Job)182_storage)": {
        "encoding": "mapping",
        "key": "t_bytes32",
        "label": "mapping(bytes32 => struct IPPAgentSafeModule.Job)",
        "numberOfBytes": "32",
        "value": "t_struct(Job)182_storage"
      },
      "t_struct(Job)182_storage": {
        "encoding": "inplace",
        "label": "struct IPPAgentSafeModule.Job",
        "members": [
          {
            "astId": 177,
            "contract": "contracts/PPSafeAgent.sol:PPAgentSafeModule",
            "label": "isActive",
            "offset": 0,
            "slot": "0",
            "type": "t_bool"
          },
          {
            "astId": 179,
            "contract": "contracts/PPSafeAgent.sol:PPAgentSafeModule",
            "label": "intervalSeconds",
            "offset": 1,
            "slot": "0",
            "type": "t_uint24"
          },
          {
            "astId": 181,
            "contract": "contracts/PPSafeAgent.sol:PPAgentSafeModule",
            "label": "lastExecutionAt",
            "offset": 4,
            "slot": "0",
            "type": "t_uint32"
          }
        ],
        "numberOfBytes": "32"
      },
      "t_uint24": {
        "encoding": "inplace",
        "label": "uint24",
        "numberOfBytes": "3"
      },
      "t_uint32": {
        "encoding": "inplace",
        "label": "uint32",
        "numberOfBytes": "4"
      }
    }
  }
}