{
  "address": "0xF4659dC0842A416c1DC7B86751E6f0b1DCe95569",
  "abi": [
    {
      "inputs": [
        {
          "internalType": "address",
          "name": "agentAddress",
          "type": "address"
        }
      ],
      "stateMutability": "nonpayable",
      "type": "constructor"
    },
    {
      "inputs": [],
      "name": "ExecutionReverted",
      "type": "error"
    },
    {
      "inputs": [],
      "name": "IntervalNotReached",
      "type": "error"
    },
    {
      "inputs": [],
      "name": "InvalidJobOwner",
      "type": "error"
    },
    {
      "inputs": [],
      "name": "InvalidSender",
      "type": "error"
    },
    {
      "inputs": [
        {
          "internalType": "address",
          "name": "safe",
          "type": "address"
        },
        {
          "components": [
            {
              "internalType": "address",
              "name": "to",
              "type": "address"
            },
            {
              "internalType": "bytes",
              "name": "data",
              "type": "bytes"
            },
            {
              "internalType": "uint256",
              "name": "value",
              "type": "uint256"
            },
            {
              "internalType": "enum ISafe.Operation",
              "name": "operation",
              "type": "uint8"
            }
          ],
          "internalType": "struct IPPAgentSafeModule.Tx",
          "name": "tx_",
          "type": "tuple"
        }
      ],
      "name": "exec",
      "outputs": [],
      "stateMutability": "nonpayable",
      "type": "function"
    }
  ],
  "transactionHash": "0xeabe8d1a96b8c0cbcf2779e0363cef79fe5c49ac3a8dd9d4339a0f2205cb7aab",
  "args": [
    "0xad1e507f8A0cB1B91421F3bb86BBE29f001CbcC6"
  ],
  "numDeployments": 1,
  "solcInputHash": "f2419f9da5fe0cccbe04c98137ce1313",
  "bytecode": "0x60a060405234801561001057600080fd5b50604051610a00380380610a0083398101604081905261002f91610040565b6001600160a01b0316608052610070565b60006020828403121561005257600080fd5b81516001600160a01b038116811461006957600080fd5b9392505050565b60805161096f61009160003960008181605d0152610125015261096f6000f3fe608060405234801561001057600080fd5b506004361061002b5760003560e01c8063c0bc1e3d14610030575b600080fd5b61004361003e366004610357565b610045565b005b3373ffffffffffffffffffffffffffffffffffffffff7f000000000000000000000000000000000000000000000000000000000000000016146100b4576040517fddb5de5e00000000000000000000000000000000000000000000000000000000815260040160405180910390fd5b816000367fffffffffffffffffffffffffffffffffffffffffffffffffffffffffffffffe001356040517ff729cf0d0000000000000000000000000000000000000000000000000000000081526004810182905290915060009073ffffffffffffffffffffffffffffffffffffffff7f0000000000000000000000000000000000000000000000000000000000000000169063f729cf0d90602401600060405180830381865afa15801561016c573d6000803e3d6000fd5b505050506040513d6000823e601f3d9081017fffffffffffffffffffffffffffffffffffffffffffffffffffffffffffffffe01682016040526101b2919081019061060d565b505050505090508073ffffffffffffffffffffffffffffffffffffffff168373ffffffffffffffffffffffffffffffffffffffff161461021e576040517fe12233c300000000000000000000000000000000000000000000000000000000815260040160405180910390fd5b600073ffffffffffffffffffffffffffffffffffffffff8616635229073f6102496020880188610780565b604088013561025b60208a018a6107a4565b61026b60808c0160608d01610810565b6040518663ffffffff1660e01b815260040161028b959493929190610831565b6000604051808303816000875af11580156102aa573d6000803e3d6000fd5b505050506040513d6000823e601f3d9081017fffffffffffffffffffffffffffffffffffffffffffffffffffffffffffffffe01682016040526102f091908101906108e3565b5090508061032a576040517ff21e646b00000000000000000000000000000000000000000000000000000000815260040160405180910390fd5b505050505050565b73ffffffffffffffffffffffffffffffffffffffff8116811461035457600080fd5b50565b6000806040838503121561036a57600080fd5b823561037581610332565b9150602083013567ffffffffffffffff81111561039157600080fd5b8301608081860312156103a357600080fd5b809150509250929050565b7f4e487b7100000000000000000000000000000000000000000000000000000000600052604160045260246000fd5b604051610120810167ffffffffffffffff81118282101715610401576104016103ae565b60405290565b604051601f82017fffffffffffffffffffffffffffffffffffffffffffffffffffffffffffffffe016810167ffffffffffffffff8111828210171561044e5761044e6103ae565b604052919050565b805160ff8116811461046757600080fd5b919050565b80517fffffffff000000000000000000000000000000000000000000000000000000008116811461046757600080fd5b80516affffffffffffffffffffff8116811461046757600080fd5b805161ffff8116811461046757600080fd5b805163ffffffff8116811461046757600080fd5b805162ffffff8116811461046757600080fd5b600082601f83011261050157600080fd5b815167ffffffffffffffff81111561051b5761051b6103ae565b602061054d817fffffffffffffffffffffffffffffffffffffffffffffffffffffffffffffffe0601f85011601610407565b828152858284870101111561056157600080fd5b60005b8381101561057f578581018301518282018401528201610564565b506000928101909101919091529392505050565b6000604082840312156105a557600080fd5b6040516040810167ffffffffffffffff82821081831117156105c9576105c96103ae565b81604052829350845191506105dd82610332565b908252602084015190808211156105f357600080fd5b50610600858286016104f0565b6020830152505092915050565b6000806000806000808688036101c081121561062857600080fd5b875161063381610332565b602089015190975061064481610332565b8096505060408801519450610120807fffffffffffffffffffffffffffffffffffffffffffffffffffffffffffffffa08301121561068157600080fd5b6106896103dd565b915061069760608a01610456565b82526106a560808a0161046c565b60208301526106b660a08a0161049c565b60408301526106c760c08a016104b7565b60608301526106d860e08a016104b7565b60808301526101006106eb818b016104c9565b60a08401526106fb828b01610456565b60c084015261070d6101408b016104dd565b60e084015261071f6101608b016104c9565b908301525061018088015190935067ffffffffffffffff8082111561074357600080fd5b61074f8a838b016104f0565b93506101a089015191508082111561076657600080fd5b5061077389828a01610593565b9150509295509295509295565b60006020828403121561079257600080fd5b813561079d81610332565b9392505050565b60008083357fffffffffffffffffffffffffffffffffffffffffffffffffffffffffffffffe18436030181126107d957600080fd5b83018035915067ffffffffffffffff8211156107f457600080fd5b60200191503681900382131561080957600080fd5b9250929050565b60006020828403121561082257600080fd5b81356002811061079d57600080fd5b73ffffffffffffffffffffffffffffffffffffffff8616815284602082015260806040820152826080820152828460a0830137600060a08483010152600060a07fffffffffffffffffffffffffffffffffffffffffffffffffffffffffffffffe0601f8601168301019050600283106108d3577f4e487b7100000000000000000000000000000000000000000000000000000000600052602160045260246000fd5b8260608301529695505050505050565b600080604083850312156108f657600080fd5b8251801515811461090657600080fd5b602084015190925067ffffffffffffffff81111561092357600080fd5b61092f858286016104f0565b915050925092905056fea26469706673582212209fd45019168e3a05231ab621460c817cd483e0da555c9cfb374a225fce6b868d64736f6c63430008130033",
  "devdoc": {
    "kind": "dev",
    "methods": {
      "constructor": {
        "params": {
          "agentAddress": "Address of a PPAgent contract"
        }
      },
      "exec(address,(address,bytes,uint256,uint8))": {
        "params": {
          "safe": "Address of a Safe smart contract",
          "tx_": "Transaction to be executed"
        }
      }
    },
    "stateVariables": {
      "AgentContract": {
        "details": "Address of the PPAgent Contract"
      }
    },
    "version": 1
  },
  "userdoc": {
    "kind": "user",
    "methods": {},
    "version": 1
  },
  "storageLayout": {
    "storage": [],
    "types": null
  }
}